{
  "_format": "hh-sol-artifact-1",
  "contractName": "LandRegistry",
  "sourceName": "contracts/LandRegistry.sol",
  "abi": [
    {
      "inputs": [
        {
          "internalType": "string",
          "name": "_FullName",
          "type": "string"
        },
        {
          "internalType": "bytes32",
          "name": "_AadhaarHash",
          "type": "bytes32"
        },
        {
          "internalType": "uint64",
          "name": "_PlotNumber",
          "type": "uint64"
        },
        {
          "internalType": "string",
          "name": "_area",
          "type": "string"
        },
        {
          "internalType": "string",
          "name": "_Location",
          "type": "string"
        },
        {
          "internalType": "string",
          "name": "_imgUrl",
          "type": "string"
        },
        {
          "internalType": "address",
          "name": "_Owner",
          "type": "address"
        }
      ],
      "stateMutability": "nonpayable",
      "type": "constructor"
    },
    {
      "inputs": [],
      "name": "AadhaarHash",
      "outputs": [
        {
          "internalType": "bytes32",
          "name": "",
          "type": "bytes32"
        }
      ],
      "stateMutability": "view",
      "type": "function"
    },
    {
      "inputs": [],
      "name": "FullName",
      "outputs": [
        {
          "internalType": "string",
          "name": "",
          "type": "string"
        }
      ],
      "stateMutability": "view",
      "type": "function"
    },
    {
      "inputs": [],
      "name": "Location",
      "outputs": [
        {
          "internalType": "string",
          "name": "",
          "type": "string"
        }
      ],
      "stateMutability": "view",
      "type": "function"
    },
    {
      "inputs": [],
      "name": "Owner",
      "outputs": [
        {
          "internalType": "address",
          "name": "",
          "type": "address"
        }
      ],
      "stateMutability": "view",
      "type": "function"
    },
    {
      "inputs": [],
      "name": "PlotNumber",
      "outputs": [
        {
          "internalType": "uint64",
          "name": "",
          "type": "uint64"
        }
      ],
      "stateMutability": "view",
      "type": "function"
    },
    {
      "inputs": [],
      "name": "area",
      "outputs": [
        {
          "internalType": "string",
          "name": "",
          "type": "string"
        }
      ],
      "stateMutability": "view",
      "type": "function"
    },
    {
      "inputs": [],
      "name": "imgUrl",
      "outputs": [
        {
          "internalType": "string",
          "name": "",
          "type": "string"
        }
      ],
      "stateMutability": "view",
      "type": "function"
    }
  ],
  "bytecode": "0x608060405234801561001057600080fd5b50604051610d34380380610d3483398181016040528101906100329190610338565b8660009081610041919061066b565b508560018190555084600260006101000a81548167ffffffffffffffff021916908367ffffffffffffffff1602179055508360039081610081919061066b565b508260049081610091919061066b565b5081600590816100a1919061066b565b5080600660006101000a81548173ffffffffffffffffffffffffffffffffffffffff021916908373ffffffffffffffffffffffffffffffffffffffff1602179055505050505050505061073d565b6000604051905090565b600080fd5b600080fd5b600080fd5b600080fd5b6000601f19601f8301169050919050565b7f4e487b7100000000000000000000000000000000000000000000000000000000600052604160045260246000fd5b6101568261010d565b810181811067ffffffffffffffff821117156101755761017461011e565b5b80604052505050565b60006101886100ef565b9050610194828261014d565b919050565b600067ffffffffffffffff8211156101b4576101b361011e565b5b6101bd8261010d565b9050602081019050919050565b60005b838110156101e85780820151818401526020810190506101cd565b60008484015250505050565b600061020761020284610199565b61017e565b90508281526020810184848401111561022357610222610108565b5b61022e8482856101ca565b509392505050565b600082601f83011261024b5761024a610103565b5b815161025b8482602086016101f4565b91505092915050565b6000819050919050565b61027781610264565b811461028257600080fd5b50565b6000815190506102948161026e565b92915050565b600067ffffffffffffffff82169050919050565b6102b78161029a565b81146102c257600080fd5b50565b6000815190506102d4816102ae565b92915050565b600073ffffffffffffffffffffffffffffffffffffffff82169050919050565b6000610305826102da565b9050919050565b610315816102fa565b811461032057600080fd5b50565b6000815190506103328161030c565b92915050565b600080600080600080600060e0888a031215610357576103566100f9565b5b600088015167ffffffffffffffff811115610375576103746100fe565b5b6103818a828b01610236565b97505060206103928a828b01610285565b96505060406103a38a828b016102c5565b955050606088015167ffffffffffffffff8111156103c4576103c36100fe565b5b6103d08a828b01610236565b945050608088015167ffffffffffffffff8111156103f1576103f06100fe565b5b6103fd8a828b01610236565b93505060a088015167ffffffffffffffff81111561041e5761041d6100fe565b5b61042a8a828b01610236565b92505060c061043b8a828b01610323565b91505092959891949750929550565b600081519050919050565b7f4e487b7100000000000000000000000000000000000000000000000000000000600052602260045260246000fd5b6000600282049050600182168061049c57607f821691505b6020821081036104af576104ae610455565b5b50919050565b60008190508160005260206000209050919050565b60006020601f8301049050919050565b600082821b905092915050565b6000600883026105177fffffffffffffffffffffffffffffffffffffffffffffffffffffffffffffffff826104da565b61052186836104da565b95508019841693508086168417925050509392505050565b6000819050919050565b6000819050919050565b600061056861056361055e84610539565b610543565b610539565b9050919050565b6000819050919050565b6105828361054d565b61059661058e8261056f565b8484546104e7565b825550505050565b600090565b6105ab61059e565b6105b6818484610579565b505050565b5b818110156105da576105cf6000826105a3565b6001810190506105bc565b5050565b601f82111561061f576105f0816104b5565b6105f9846104ca565b81016020851015610608578190505b61061c610614856104ca565b8301826105bb565b50505b505050565b600082821c905092915050565b600061064260001984600802610624565b1980831691505092915050565b600061065b8383610631565b9150826002028217905092915050565b6106748261044a565b67ffffffffffffffff81111561068d5761068c61011e565b5b6106978254610484565b6106a28282856105de565b600060209050601f8311600181146106d557600084156106c3578287015190505b6106cd858261064f565b865550610735565b601f1984166106e3866104b5565b60005b8281101561070b578489015182556001820191506020850194506020810190506106e6565b868310156107285784890151610724601f891682610631565b8355505b6001600288020188555050505b505050505050565b6105e88061074c6000396000f3fe608060405234801561001057600080fd5b506004361061007d5760003560e01c8063b4a99a4e1161005b578063b4a99a4e146100dc578063d20d40de146100fa578063d68387c714610118578063ec0be13d146101365761007d565b80634d41892f146100825780639223df01146100a0578063937d5738146100be575b600080fd5b61008a610154565b6040516100979190610462565b60405180910390f35b6100a86101e2565b6040516100b591906104a7565b60405180910390f35b6100c66101fc565b6040516100d39190610462565b60405180910390f35b6100e461028a565b6040516100f19190610503565b60405180910390f35b6101026102b0565b60405161010f9190610537565b60405180910390f35b6101206102b6565b60405161012d9190610462565b60405180910390f35b61013e610344565b60405161014b9190610462565b60405180910390f35b6003805461016190610581565b80601f016020809104026020016040519081016040528092919081815260200182805461018d90610581565b80156101da5780601f106101af576101008083540402835291602001916101da565b820191906000526020600020905b8154815290600101906020018083116101bd57829003601f168201915b505050505081565b600260009054906101000a900467ffffffffffffffff1681565b6000805461020990610581565b80601f016020809104026020016040519081016040528092919081815260200182805461023590610581565b80156102825780601f1061025757610100808354040283529160200191610282565b820191906000526020600020905b81548152906001019060200180831161026557829003601f168201915b505050505081565b600660009054906101000a900473ffffffffffffffffffffffffffffffffffffffff1681565b60015481565b600580546102c390610581565b80601f01602080910402602001604051908101604052809291908181526020018280546102ef90610581565b801561033c5780601f106103115761010080835404028352916020019161033c565b820191906000526020600020905b81548152906001019060200180831161031f57829003601f168201915b505050505081565b6004805461035190610581565b80601f016020809104026020016040519081016040528092919081815260200182805461037d90610581565b80156103ca5780601f1061039f576101008083540402835291602001916103ca565b820191906000526020600020905b8154815290600101906020018083116103ad57829003601f168201915b505050505081565b600081519050919050565b600082825260208201905092915050565b60005b8381101561040c5780820151818401526020810190506103f1565b60008484015250505050565b6000601f19601f8301169050919050565b6000610434826103d2565b61043e81856103dd565b935061044e8185602086016103ee565b61045781610418565b840191505092915050565b6000602082019050818103600083015261047c8184610429565b905092915050565b600067ffffffffffffffff82169050919050565b6104a181610484565b82525050565b60006020820190506104bc6000830184610498565b92915050565b600073ffffffffffffffffffffffffffffffffffffffff82169050919050565b60006104ed826104c2565b9050919050565b6104fd816104e2565b82525050565b600060208201905061051860008301846104f4565b92915050565b6000819050919050565b6105318161051e565b82525050565b600060208201905061054c6000830184610528565b92915050565b7f4e487b7100000000000000000000000000000000000000000000000000000000600052602260045260246000fd5b6000600282049050600182168061059957607f821691505b6020821081036105ac576105ab610552565b5b5091905056fea2646970667358221220027459bc268fff0de0cc195ca5981bccb719d40c582df038014e93b9ffe569e464736f6c634300081c0033",
  "linkReferences": {},
  "deployedLinkReferences": {}
}